:020000040000FA
:060000000200D3020DB561
:03006300021A0F6F
:03007B000216D595
:10008300020DC100000080FB1200E2B90003020070
:10009300CDE4900141783D79028002F0A3D8FCD9E8
:1000A300FA90027DAA82AB839000E57818790180EB
:1000B30015E493A3AC82AD838A828B83F0A3AA82D7
:1000C300AB838C828D83D8E9D9E7120BF1120086BA
:1000D30075D0007581BF75104175110102008B79D0
:1000E3000122035FCF04FFFFFF4BE492E45830315A
:1000F30032333401010004FFEF080808EAC0E0EBE3
:10010300C0E086F0E7A4FA180986F0E7A42AFA18F3
:100113000986F0E7A42AFA180986F0E7A42AFA194F
:1001230086F0E7A4FBE5F02AFA190886F0E7A42B8A
:10013300FBE5F03AFA190886F0E7A42BFBE5F03A61
:10014300FA18180986F0E7A4C5F02BFBE43AFA196C
:1001530008E7C5F0C6A426F6E5F03BFBE43AFA1837
:1001630086F0E7A4F6E5F00826F6E43B08F6E43A61
:1001730008F6D0E0FBD0E0FA226016080808C6C3F0
:1001830013C618C613C618C613C618C613C6D5E0B9
:10019300EA22E026F008A3E036F008A3E036F008F0
:1001A300A3E036F022E0F608A3E0F608A3E0F608A1
:1001B300A3E0F622E6F008A3E6F008A3E6F008A31E
:1001C300E6F022E0FAA3E0FBA3E0FCA3E0FD22EAD1
:1001D300F0A3EBF0A3ECF0A3EDF022CAC0E0E6F04D
:1001E300A308DAFAD0E0FA22CAC0E0E0A3C582CCC1
:1001F300C582C583CDC583F0A3C582CCC582C58323
:10020300CDC583DAE6D0E0CA22B90010BB0008E806
:100213008AF084F8AAF022E4FBC8FA22EB70227B6E
:1002230010C833C8C933C9335007C39AC3DBF2803C
:10023300069A50012ADBEAC833F4C8C933F4C9FA71
:100243002275F008E4C833C8C933C933C99AC99BB6
:100253005004C92AC93BD5F0ECFBC833F4C8E4C940
:10026300FA22600C08C6C313C618C613C6D5E0F439
:1002730022251010AF08F510400215118008F51063
:1002830040021511D2AF22C0D0251010AF08F510CF
:10029300500205118008F51050020511D2AFD0D0DD
:1002A300222510F58210AF08F510400215118008C1
:1002B300F51040021511D2AF851183222510F58266
:1002C300E43511F58322E4732510C582C0E0E511FE
:1002D30034FFC583C0E0E510C3958224F910AF084D
:1002E3008583118582108008858311858210D2AFA2
:1002F300CEF0A3E520F0A37808E608F0A3DEFAEF3A
:10030300F0A3E58124FBF8E608F0A3E608F0A308D0
:1003130008E608F0A3E608F0A315811581D0E0FEF6
:10032300D0E0F815811581E8C0E0EEC0E022851128
:1003330083851082E0A3FEE0A3F5207808E0A3F60E
:1003430008DFFAE0A3FFE0A3C0E0E0A3C0E0E0A37E
:10035300C0E0E0A3C0E010AF088582108583118060
:1003630008858210858311D2AFD083D08222C0D07A
:100373002510C582C0E0E51134FFC583C0E0E51058
:10038300C3958224F310AF088583118582108008FA
:10039300858311858210D2AFC8F0A3E9F0A3EAF0F8
:1003A300A3EBF0A37908E709F0A3D8FAECF0A3EDE7
:1003B300F0A3EEF0A3EFF0A3D0E0F0A3D0E0F0A31E
:1003C300D0E0F0A3E520F0A3E5F0F0A322851183AC
:1003D300851082E0C0E0A3E0F9A3E0FAA3E0FBA369
:1003E3007808E0F608A3DFFAE0FCA3E0FDA3E0FE53
:1003F300A3E0FFA3E0C0E0A3E0C0E0A3E0F5D0A347
:10040300E0F520A3E0A3F5F010AF08858311858202
:10041300108008858311858210D2AFD082D083D01B
:10042300E0F8D0E03274028000C0E0F4041202A4C9
:10043300D0E01201DE22F0D083D08222C082C083BA
:100443008A828B83E402043922C082C083900141F3
:10045300E0F8A3E0F5838882A3A3E0F8A3E0F99092
:100463000145E8F0A3E9020550C082C0839001432F
:10047300E0F8A3E0F5838882E02410020550C082EF
:10048300C0831216CA0207D1021A7D74F71202CB77
:1004930075080775090078081204287C547DF890C4
:1004A3000143E02402FAA3E03400FB121AFD7402B4
:1004B30012028A900143E0F8A3E0F5838882E024E6
:1004C300080208C2C082C083120CFC0207D1C0829A
:1004D300C083900141E0F8A3E0F5838882A3A3E001
:1004E300F9120D248068C082C083900141E0F8A313
:1004F300E0F5838882A3A3E0F9120D598050C082EE
:10050300C083900141E0F8A3E0F5838882A3A3E0D0
:10051300F9120D9D8038C082C083900141E0F8A399
:10052300E0F5838882A3A3E0F9120B888020C0E062
:10053300900143E0F8A3E0F5838882A3A3D0E0F021
:10054300900143E0F8A3E0F5838882E004F0D083D0
:10055300D08222C082C083900141E02402FAA3E04A
:100563003400FB1214B380E62222C082C0839001C0
:1005730041E02402FAA3E03400FB12138780CF7416
:10058300F71202CB12139E900143E02402FCA3E076
:100593003400FD8B838A82740B1201EB900143E0DC
:1005A300F8A3E0F5838882E0240B0208C2C082C06E
:1005B30083900141E0F8A3E0F5838882A3A3E0F9E7
:1005C300120CB9808974F11202CB74F812027412FE
:1005D3000C5974041202BF1201D2120C71851082DD
:1005E3008511831201D2120C898A0C8B0D8C0E8D0E
:1005F3000F120CA18A088B098C0A8D0B740412024A
:10060300BF1201C6900143E0F8A3E0F5838882A3FB
:10061300A31201D28510828511831201C690014372
:10062300E0F8A3E0F5838882A3A3A3A3A3A3120105
:10063300D2900143E0F8A3E0F5838882A3A3A3A3A8
:10064300A3A3A3A3A3A3780C1201B7900143E024AF
:100653000EF8A3E03400F98882898378081201B781
:10066300900143E0F8A3E0F5838882E02410F0745E
:100673000812028A7F08020331222274F71202CB86
:10068300900143E0F8A3E0F5838882E0240AF09028
:100693000145E0FCA3E0FD900143E02402FAA3E05E
:1006A3003400FB12119BE9702375080A7509007861
:1006B300081204287C007D00900143E02402FAA381
:1006C300E03400FB121AD0740212028A0208C374C7
:1006D300F71202CB121188E9600D12125B8A088BA4
:1006E30009AE08AF09801B75080D7509007808125B
:1006F30004287C007D00EEFAEFFB121AD07402127C
:10070300028A75080D7509007808120428EEFCEFBB
:10071300FD900143E02402FAA3E03400FB121A8A9D
:10072300740212028A900143E0F8A3E0F583888201
:10073300E0240D0208C2C082C083900141E0F8A307
:10074300E0F5838882A3A3E0F9121371020551C077
:1007530082C08312137B8076C082C083900141E004
:10076300F8A3E0F5838882A3A3E0F912133D020501
:1007730051C082C083121368E9600474018001E4EC
:10078300020531C082C083900141E0F8A3E0F58304
:100793008882A3A3E0F9121136020551C082C083F7
:1007A30012117EE9600474018001E4020531C08204
:1007B300C083900141E0F8A3E0F5838882A3A3E01E
:1007C300F91212FC020551C082C08312132E90014C
:1007D30043E0F8A3E0F5838882A3A3E9020542C0BE
:1007E30082C083900141E0F8A3E0F5838882A3A34C
:1007F300E0F9120FE0020551C082C083120FF180AD
:10080300CDC082C083900141E0F8A3E0F5838882E4
:10081300A3A3E0F9121010020551C082C083120F86
:10082300FE80ABC082C083900141E0F8A3E0F58372
:100833008882A3A3E06004790180027900120FA5E6
:10084300020551C082C083120FCCE9600474018099
:1008530001E4020531C082C083900141E0F8A3E0C6
:10086300F5838882A3A3E0F9121115020551C08212
:10087300C08312112A0207D1C082C083900141E0D4
:10088300F8A3E0F5838882A3A3E0FAA3E0FB120FA9
:100893007102055174F71202CB120F948A0890016A
:1008A30043E0FAA3E0F5838A82A3A3E508F0A3EB70
:1008B300F0900143E0F8A3E0F5838882E02402F09E
:1008C3007F0202033174F71202CB74FA12027485A9
:1008D30010828511837405F0F508750900780812F4
:1008E3000428900141E02402FCA3E03400FD7403DA
:1008F3001202BFAA82AB83121A8A740212028A8579
:100903001082851183AA82AB831210F5740612023A
:100913008A80AD74F71202CB1211108A088B09AECC
:1009230008AF098E828F83E0F508750900780812F5
:1009330004288E828F83A3AC82AD83900143E0248D
:1009430002FAA3E03400FB121A8A740212028A8E9E
:10095300828F83E0F8900143E0F9A3E0F583898275
:10096300E0280208C2C082C0831216FCE96070123C
:10097300170A900141EAF0A3EBF0900141E0F8A3DC
:10098300E0F9900143E8F0A3E9F0F583888274016C
:10099300F0900141E0F8A3E0F5838882A3E0F8C377
:1009A300942A5038E8C333F8E433F9740028F58205
:1009B30074F839F583E0F8A3E0F58388821202C95D
:1009C300900143E0F8A3E0F5838882E0C3940250EA
:1009D3000B900143E0FAA3E0FB12043F12171C0241
:1009E3000551C082C08390014574C8F0A3E4F0129E
:1009F30017E812171C020551C082C083E960051471
:100A0300600A800F9070D6E0D2E080069070D6E046
:100A1300D2E1F08001F0D083D08222C082C08390E3
:100A230070D6E0D2E1F0E0D2E080EAC082C083E990
:100A3300600514600A800F9070D7E0D2E0800690C2
:100A430070D7E0D2E1F080CEC082C0839070D6E050
:100A5300D2E7F0E0A2E040FBE0A2E140F6E0C2E72B
:100A630080B3C082C083EAFCEBFDE9600514600932
:100A73008015ECF89070D48005ECF89070D2E0E823
:100A8300F0EDF8A3E0E8F0808DC082C0839070D1D0
:100A9300E0C2E1F0E0C2E0020A1874F71202CBC22E
:100AA300AF906270E0A2E740F88A088B09740A7875
:100AB30008120265E508906272F0906270E0D2E07D
:100AC300F0D2AF7F0202033174F61202CB8A088B95
:100AD30009ECFEEDFF890AC2AF120A4B7A477B018C
:100AE3007901120A65EE900148F0EF900147F0900A
:100AF300014EE0543F4440F090014A7473F090017A
:100B0300497462F090014EE054CFF090014BE054F1
:100B13001FF0E50A333354FCA3F090014BE4F0904B
:100B2300014D7412F0A37442F0906270E0A2E740AA
:100B3300F874027808120265E509906272F0E5081C
:100B4300906271F079011209FB906270E0D2E1F0DA
:100B53001217D8D2AF7F03020331758FFF75F618D2
:100B630075F70722759A0075B80075A80075A90472
:100B730075B914D2AF22C082C0839001557401F0BD
:100B8300D083D0822274F81202CBE9FE90014FE0A9
:100B93006E6035EE601614601314600514601680E1
:100BA300277F007A507B01121923801074016E6035
:100BB300097F008007900155E4F07F01E5A054FE12
:100BC3004FF5A0EE90014FF07F01020331C082C0C8
:100BD3008343FF017A507B0112192390014FE4F004
:100BE3007A507B01121923C2A07402020B82121ADB
:100BF30086120B5D120BD07903120B88120B67124E
:100C03001A551215521209E5121A7F1209681213A6
:100C130068E960F41214B680EF74F81202CB90F412
:100C2300007C567D0174041201EBE9900156F07AC1
:100C3300007B74120A9D79017C567D017A007B74D6
:100C4300120ACB7F01020331C082C08390F400E01B
:100C5300F9D083D08222C082C083C2AF539AFED21E
:100C6300AFC2AF439A01D2AF900237021008C082DD
:100C7300C083C2AF539AFED2AFC2AF439A01D2AF81
:100C830090023B021008C082C083C2AF539AFED2C7
:100C9300AFC2AF439A01D2AF90023F021008C082A5
:100CA300C083C2AF539AFED2AFC2AF439A01D2AF51
:100CB300900243021008C082C083E9900236F060BC
:100CC3003590F85A1201C69002431201D290F85A95
:100CD3001201C690023F1201D290F85A1201C69037
:100CE300023B1201D290F85A1201C6900237120148
:100CF300D2900247E4F002100BC082C08390618E51
:100D0300E0F8748068700479808013E8C3943FA28C
:100D1300D265D0334002783E90015FE028F902109B
:100D23000BC082C083E9700575E1018026906000E5
:100D3300E0547F906184F0906190E0D2E5F090619F
:100D4300A6E054E0440AF0C2A8C2AF539AFED2AF61
:100D530075E10402100BC082C083E9700A75E101DA
:100D63009061E9E4F080309061E874E5F0A37403E6
:100D7300F0906000E0547F906184F0906190E0C255
:100D8300E5F09061A6E054E0440AF0C2A8C2AF5374
:100D93009AFED2AF75E10402100BC082C083E960F2
:100DA3000474018001E4C333F8906002E054FD024F
:100DB3001329C0E0E5BFC289F4F5BFD0E032C0E03B
:100DC30074EF12037174FF120274E5E9F8E591857B
:100DD3001082851183F0759B00E8F4F5E9E0F4F5E2
:100DE30091E0A2E5501C90028F7401F0900236E06E
:100DF300601090F85E78081201A8900243780812F8
:100E0300019590015DE07003020F67900236E06088
:100E130031851082851183E0A2E0E433F508E4F51F
:100E230009F50AF50B9002377808120195851082AF
:100E3300851183E0A2E2E433F50890023B780812BF
:100E43000195851082851183E054057003020F67B5
:100E5300E5D9FA7007E5D9E5D9020F67D287C287CA
:100E6300900233E0600DA3E0FEA3E0FF900233E4C1
:100E7300F0803E900232E0C394104010900231E0C3
:100E830070037410F0E014F0A3E014F0900230E06B
:100E930070037410F0E014F0900232E004F090025A
:100EA30030E075F00AA4F8A9F0746028FE740139E3
:100EB300FF8E828F837808E5D9F0A3181AEA6009B8
:100EC300E870F4E5D91AEA70FAE5D9F87480687025
:100ED3000474808012E8C3943FA2D265D0334002E9
:100EE300783E90015FE0288E828F83A3A3A3A3A300
:100EF300A3A3A3F0900249E08E828F83A3A3A3A3AD
:100F0300A3A3A3A3A3F0900249E004F0E5D9120B35
:100F130079900236E0604D851082851183E0A2E06E
:100F230050428E828F83A3A3A3A3A3E0F990024729
:100F3300E0601AA3E0F8E9C39814F508E4F509F5AD
:100F43000AF50B90023F7808120195801290F85A27
:100F53001201C690023F1201D29002477401F0E9D8
:100F6300900248F0740112028A7F040203D0C08207
:100F7300C083EA24B5F8EB34F6F9C3E89475E99431
:100F830000500CE8547FF8906000E0548048F080F3
:100F930077C082C083906000E0547F244BFA7B09C2
:100FA3008066C082C083E99061A0600E747FF09078
:100FB300619A743FF0A3745A800C743AF090619A6A
:100FC3007433F0A3745502132AC082C0839061A0C6
:100FD300E0647F7004790180027900802BC082C0B5
:100FE30083740359F8906193E054FC021329C0827F
:100FF300C083906193E05403021383C082C0839043
:10100300015F0213821201C6D083D0822274F812C8
:1010130002CBE9FE90015FE06E6008120C1C120C1B
:101023004BE9F07F0102033174F71202CB8A828B02
:1010330083A3A882A9838A828B83E0FDC39406409D
:10104300030210E2EDC3940250030210E2EDC394D5
:10105300055004EDFC80027C04EC33333354F8FB7D
:1010630074206B70047E008002EBFE906194E05468
:1010730060F0741F5EFAE04AF0EB1313543F541F01
:10108300FA906191E054E04AF0EC60267A987B6133
:101093001D8D08E82508F582E93400F583E08A828E
:1010A3008B83F0EA24FF1AEB34FFFB1CEC70E1EDB9
:1010B3006020906003E0D2E0F074FF2DFAE82AF597
:1010C30082E93400F583E090601AF09060197409A6
:1010D300800C906003E0C2E0F09060197408F08027
:1010E3000C75E109D287C287740612028A7F020255
:1010F3000331C082C0838A828B837C7D7D02740628
:101103001201EB7A7D7B0212102B02100B7A7D7B8E
:101113000222C082C083E9C3942140027920740172
:101123002990601902132AC082C083906019E014C9
:1011330002138374F81202CBE9FE90015DE06E6046
:1011430037EEF0602C90015EE4F0900247F090F8E7
:10115300621201C69060081201D27A7D7B021210DE
:101163002B906001E0D2E2F0E5E170FC75E10880CC
:1011730007E5E170FC75E10B021026C082C0839085
:10118300015D021382C082C083900232E060047961
:10119300018002790002100B74F71202CB74FB1268
:1011A3000274ECFEEDFFC2AF539AFED2AF9002324F
:1011B300E06041900231E070037410F0E014F0A39A
:1011C300E014F075080A75090078081204289002E3
:1011D30031E075F00AA4F8A9F0746028FC740139B1
:1011E300FD121A8A740212028AC2AF439A01D2AF65
:1011F3007901805F900234EAF0A3EBF0900233743C
:1012030001F0C2AF439A01D2AF851082851183AA40
:1012130082AB83121923851082851183AA82AB8343
:10122300121967C3EA9EEB9F500B121A7F90023389
:10123300E070E380BBC2AF539AFED2AF900233E0BB
:10124300F8E4F0C2AF439A01D2AFE87004790180A9
:1012530002790074050210EDC082C083900232E06F
:1012630060FEC2AF539AFED2AF900231E0700374B6
:1012730010F0E014F0A3E014F0900231E0F875F000
:101283000AA4FAABF074602AFA74013BFB8A828BDE
:10129300837C4A7D0274081201EB8A828B83A3A3A9
:1012A300A3A3A3A3A3A3E0900252F08A828B83A3F8
:1012B300A3A3A3A3A3A3A3A3E0900253F0740028C2
:1012C300F58274023400F583E0900256F0E8C333EC
:1012D300F8E433F9741028F582740239F583E0F8E1
:1012E300A3E0F9900254E8F0A3E9F0C2AF439A01F6
:1012F300D2AF7A4A7B0202100BC082C083E9C39447
:1013030001A2D265D03340047900800DE9C394F182
:10131300A2D265D033500279F1740F29C454F0443A
:1013230005906186800148F002100BC082C0839053
:101333006186E0C4540F24F1804674F81202CBE9AD
:1013430090015EF0601C90028F7401F090015DE4E7
:10135300F012185E90015AEAF0A3EBF090028E743B
:1013630001F0021026C082C08390015E8011C0820A
:10137300C083E990015C80AFC082C08390015CE0D0
:10138300F902100BC082C0838A828B837C837D0227
:10139300740B1201EB90028E04808C7A837B022201
:1013A30074F71202CB74FA120274EAFEEBFF900296
:1013B3008FE060FAE4F090F8661201C690600812BC
:1013C30001D28510828511837405F0F50875090033
:1013D3007808120428EEFCEFFD74031202BFAA8200
:1013E300AB83121A8A740212028A851082851183D2
:1013F300AA82AB8312102B90028E7401F075D9066A
:101403008E828F83A3A3A3A3A3E0F5D9EE2406F5CD
:1014130082EF3400F5837805E0F5D9A318E870F876
:10142300E5E170FC0210E474F71202CB74FA1202C5
:1014330074EAFEEBFF90028FE060FAE4F090028E14
:10144300E06043E4F090F8661201C6906008120170
:10145300D28510828511837405F0F508750900782B
:1014630008120428EEFCEFFD74031202BFAA82AB3C
:1014730083121A8A740212028A851082851183AA42
:1014830082AB8312102B75D9068E828F83A3A3A3FD
:10149300A3A3E0F5D9EE2406F582EF3400F58378B3
:1014A30005E0F5D9A318E870F8E5E170FC0210E453
:1014B3000213A374F71202CB90015EE06033900134
:1014C3005CE0602690015AE0FAA3E0FB1218928ACE
:1014D3000890015CE0FAC3E5089AEB94004012120D
:1014E300185E90015AEAF0A3EBF07A837B021214A0
:1014F3002A0210F0C082C083906190E054E1440C52
:10150300F0E0C2E0F0906192E054CFF0E054F0F0EC
:10151300906190E0C2E5F0A3E0543F4440F0906155
:1015230090E0543FF0906192E0D2E6F0A3E04403F0
:10153300F0E054E7F0E0D2E5F0E0543F4440F090AF
:101543006191E054E04406F0A3E0D2E702132A7469
:10155300F71202CBC28743FD8090015EE4F0900155
:101563005DF0900232F0900231F0900230F0900280
:1015730036F090F85A1201C69002431201D290F845
:101583005A1201C690023B1201D290F85A1201C6B8
:101593009002371201D2900249E4F0900233F01224
:1015A3000C4BE990015FF07508807509007808120B
:1015B30004287C007D007A007B60121AD07402122A
:1015C300028A759C779061B17401F09061A0747F79
:1015D300F090619A743FF0A3745AF090618674F5A9
:1015E300F09061BC7407F09061807443F01214F7BB
:1015F3009061E0E4F0A3F0A37421F0A37410F090E1
:1016030061E9E4F0906000E054804467F0A3E054A3
:10161300FCF0E0C2E2F0E0C2E3F0E054CFF0A3E07C
:10162300C2E0F0E0D2E1F0E0D2E2F0E0D2E3F0E0B9
:1016330054CFF0E0543FF09060047402F090F862ED
:101643001201C69060081201D2906012E4F0A3F078
:10165300A37440F0A3740AF078547960E82418F571
:1016630082E93400F583E0C2E1F0E0C2E0F0E8246F
:10167300F4F8E934FFF9E8B4F403E9645F70DD904A
:101683006018E0D2E0F0E0C2E3F0E0C2E4F07A7D7B
:101693007B0212102BC2A8C2AF539AFED2AF906145
:1016A30083747FF0906181E4F0A374FFF07591007F
:1016B30075E90075BF00759B00C289D2A8C2AF430C
:1016C3009A01D2AF0210F0E59D131313541F540374
:1016D300F922C0E0C0D0C082C083758A00C2EB7417
:1016E30003A291500B1470F9D28290027A7401F024
:1016F300D083D082D0D0D0E032C082C08390027A2F
:10170300E0F9D083D08222C082C08390027AE06065
:10171300FAE4F07A677B0280E9C2AFC282120A4B15
:10172300E5C1C2E9120A1E7901120A2ED287C287C5
:10173300D2AF2274F81202CB7E687A5F7B02790102
:10174300120A65EE900260F07402F50890025FF0F1
:10175300900266E0543F4440F090026274C1F090FE
:1017630002617470F0900266E054CFF0900263E07F
:10177300541FF0A37412F0900263E4F090026574B6
:101783000FF0A37442F07A577B027900120A659036
:10179300025874C1F09002577470F090025EE054E6
:1017A3003FF0EE90025AF0E508900259F090025E85
:1017B300E054CF4410F090025BE0541FF0A3741286
:1017C300F090025BE4F090025D740EF0A37412F0EB
:1017D3007F01020331120A8C121736120A4BE5C13C
:1017E300C2E9020A1E74F71202CBC2AAC2AF539A0D
:1017F300FBD2AF75862075C520D28243FD0475F1F7
:1018030001E5F454E14408F5F4538FDF90027AE4E0
:10181300F0900267F0750812F50978081204287C25
:10182300007D007A687B02121AD0740212028A7554
:10183300C100120A8C121736120A4BE5C1C2E91213
:101843000A1E539AEF758D00758A00C2EB538CFB09
:10185300438D02439A107F0202033174F11202CBCB
:10186300C2BCD2BC900292C08290027BE0F8A3E09B
:10187300F9758302D082E0C398F8A3E099F9900246
:1018830090E0FAA3E0FB12020C8A088B09806D74C6
:10189300F11202CBEAFCEBFDC2BCD2BC900292C0B7
:1018A3008290027BE0F8A3E0F9758302D082E0C363
:1018B30098F8A3E099F9900290E0FAA3E0FB1202F2
:1018C3000C8A0C8B0DE4F50EF50F90F86A7808126C
:1018D30001A8780C79081200FC7407780C12017CBB
:1018E300A80CA90DC3E89CE99D5008E824E8F8E991
:1018F3003403F9E8C39CFAE99DFB801FE4F50AF57C
:101903000B90F86A780C1201A87808790C1200FC85
:101913007407780812017CAA08AB097F0802033117
:10192300C082C083C2BCD2BC900292C08290027BB0
:10193300E0F8A3E0F9758302D082E0C398F8A3E04E
:1019430099F98A828B83A3A3E8F0A3E9F08A828BB7
:1019530083E4F0A3F08A828B83A3A3A3A304F0D030
:1019630083D0822274F11202CBC2BCD2BC90029209
:10197300C08290027BE0F8A3E0F9758302D082E095
:10198300C398F8A3E099F9EA2402FCEB3400FD8A3A
:10199300828B83A3A3A3A3E0605B8C828D83E0FE91
:1019A300A3E0FF8A828B83E0F508A3E0F509C3E88F
:1019B3009EE99F400AE50828F508E5093980229049
:1019C3000292E02508F508A3E03509F509E50828A2
:1019D300F508E50939F509E5082401F508E50934B1
:1019E30000F509E508C39EFEE5099FFF8A828B8304
:1019F300EEF0A3EFF08C828D83E8F0A3E9F08A8206
:101A03008B83E0F508A3E0F5090218FFC0E0C0D01E
:101A1300E8C0E0E9C0E0C082C08390027BE0F8A3A5
:101A2300E0F9E849600D90027BE024FFF0A3E03485
:101A3300FF800F900292E0F8A3E0F990027BE8F0B8
:101A4300A3E9F0D083D082D0E0F9D0E0F8D0D0D0B1
:101A5300E032C082C08375C6B074B0659E70FA90E0
:101A63000292E0F8A3E0F990027BE8F0A3E9F075B5
:101A7300EDF475EB1BD2BC02196280FE75C9A0752B
:101A8300C9502275C9082274F71202CB74091202D5
:101A9300BFE0FEA3E0FFEAF8EBF980188C828D83A8
:101AA300E088828983F0A3A882A9838C828D83A393
:101AB300AC82AD838E088F09E50824FF1EE5093447
:101AC300FFFFE508450970D47F0202033174F81261
:101AD30002CB74081202BFE0F8A3E0F98A828B8379
:101AE3008003ECF0A3E8FEE9FFEE24FF18EF34FFD8
:101AF300F9EE4F70ED7F0102033174F71202CB74DC
:101B0300091202BFE0FEA3E0FFEAF8EBF98E088FAB
:101B130009E50824FF1EE50934FFFFE508450960D0
:101B2300338C828D83E0A3AC82AD838A828B83F076
:101B3300A3AA82AB8370D6EEFCEFFDEC24FF1EED6F
:101B430034FFFFEC4D600D8A828B83E4F0A3AA82FD
:0D1B5300AB8380E3E8FAE9FB7F0202033177
:04000005000000D324
:047400000001020382
:107800004B048E047B08970826084608E207FB070E
:10781000C80816095808710886079F077E06B10731
:10782000CA076D058205390752075B0774075605BD
:107830006C056B0519050105D104C704C8058B0447
:107840008104D206B0056C044C047C067D06040855
:107850001D08E904302E3130450000000000010011
:0E78600000000000A0EB0000FFFF7D00000014
:04000005000000D324
